:02000002B0004C
:1040000000400B00A8530B00000006000C00050246
:084010000401E50C00000000B2
:0440180094500B00B5
:10401C0009480A49884208B505D0094A824202D0AB
:10402C00121A00F07FFF0748074A0021121A00F00D
:10403C0087FF014808BD00BF34E6032008530B007E
:10404C00ACE60320ACE60320EDE7032070B5074E89
:10405C00074C00F0C5FBA41BA4080025AC4200D102
:10406C0070BD56F8043B98470135F7E7B0520B008A
:10407C00D4520B0000F014B808B500F029F8BDE8D4
:10408C00084000F065BB00F059BA00F05FBA007848
:10409C00B0FA80F0400970470123037070470000AC
:1040AC0008B5084B0121188800F082FE064B01214F
:1040BC00188800F07DFE054B01211888BDE80840EA
:1040CC0000F076BE3CE6032038E6032034E60320FD
:1040DC0070B53B4E3B4D3C4C4FF47A7000F00CFBF2
:1040EC003088FF2100F075FE2888002100F071FE59
:1040FC002088002100F06DFE4FF47A7000F0FCFA7D
:10410C0030884FF4807100F064FE28883C2100F068
:10411C0060FE2088002100F05CFE4FF47A7000F005
:10412C00EBFA3088FF2100F054FE2888FF2100F0C4
:10413C0050FE2088002100F04CFE4FF47A7000F005
:10414C00DBFA3088002100F044FE2888802100F042
:10415C0040FE2088002100F03CFE4FF47A7000F005
:10416C00CBFA3088002100F034FE2888002100F0C2
:10417C0030FE2088FF2100F02CFE4FF47A7000F006
:10418C00BBFA3088802100F024FE2888002100F042
:10419C0020FE2088802100F01CFE4FF47A7000F085
:1041AC00ABFA3088002100F014FE2888FF2100F0C3
:1041BC0010FE2088FF21BDE8704000F00ABE00BF51
:1041CC003CE6032038E6032034E6032010B5074B09
:1041DC00074A9A600024C3E90044032000F01AF94E
:1041EC0021460120BDE8104000F024B9ACE60320C4
:1041FC000000FFFF08B5024B1B689B68019308BDCC
:10420C006802030008B5024B1B68DB68019308BD0C
:10421C006802030008B5024B1B685B68019308BD7C
:10422C002C02030008B5024B1B689B68019308BD68
:10423C002C02030008B5024B1B68DB68019308BD18
:10424C002C02030008B5024B1B689B6A019308BD46
:10425C002C02030008B5024B1B689B6F019308BD31
:10426C002C02030008B5024B1B685B68019308BD68
:10427C001802030008B5024B1B685B69019308BD6B
:10428C001802030008B5024B1B685B6C019308BD58
:10429C004802030008B5024B1B685B69019308BD1B
:1042AC006402030008B5024B1B68DB68019308BD70
:1042BC003C02030008B5024B1B681B69019308BD47
:1042CC003C02030008B5024B1B685B69019308BDF7
:1042DC003C02030008B5024B1B689B69019308BDA7
:1042EC003C02030008B5024B1B68DB69019308BD57
:1042FC003C02030008B5024B1B681B6A019308BD06
:10430C003C02030008B5024B1B689B6A019308BD75
:10431C003C02030008B5024B1B681B6C019308BDE3
:10432C003C02030008B5024B1B681B6A019308BDD5
:10433C002802030008B5024B1B685B6A019308BD99
:10434C002802030008B5024B1B689B6A019308BD49
:10435C002802030008B5024B1B68DB6A019308BDF9
:10436C002802030008B5024B1B681B6B019308BDA8
:10437C002802030008B5024B1B685B6B019308BD58
:10438C002802030008B5024B1B681B6C019308BD87
:10439C002802030008B5024B1B68DB69019308BDBA
:1043AC003002030008B5024B1B681B6A019308BD61
:1043BC003002030008B5024B1B681B68019308BD53
:1043CC004C02030008B5024B1B681B69019308BD26
:1043DC004C02030008B5024B1B685B69019308BDD6
:1043EC004C02030008B5024B1B689B69019308BD86
:1043FC004C02030008B5024B1B68DB69019308BD36
:10440C004C02030008B5024B1B681B6A019308BDE4
:10441C004C02030008B5024B1B685B68019308BD96
:10442C002002030008B5024B1B685B69019308BDB1
:10443C002002030008B5024B1B68DB6A019308BD20
:10444C002002030008B5034B1B68D3F88830019396
:10445C0008BD00002002030008B5034B1B68D3F80D
:10446C009430019308BD00002002030008B5024BF4
:10447C001B685B68019308BD4002030008B5024B42
:10448C001B689B68019308BD4002030008B5024BF2
:10449C001B68DB68019308BD4002030008B5024BA2
:1044AC001B681B69019308BD4002030008B5024B51
:1044BC001B685B69019308BD4002030008B5024B01
:1044CC001B689B69019308BD4002030008B5024BB1
:1044DC001B68DB69019308BD4002030008B5024B61
:1044EC001B681B6A019308BD4002030008B5024B10
:1044FC001B681B6B019308BD4002030008B5024BFF
:10450C001B685B6B019308BD4002030008B5024BAE
:10451C001B681B6C019308BD4002030008B5024BDD
:10452C001B685B6C019308BD4002030008B5024B8D
:10453C001B68DB6B019308BD4402030008B5024BFA
:10454C001B681B68019308BD1C02030008B5024BD5
:10455C001B685B68019308BD1C02030008B5024B85
:10456C001B681B6C019308BD1C02030008B5024BB1
:10457C001B685B6C019308BD1C02030000224068A1
:10458C001146FFF7ABBF002240681146FFF7B6BFDC
:10459C0040680022FFF7AABF4068002281F00101A9
:1045AC00FFF794BF002340681A461946FFF786BFF1
:1045BC00002340681A461946FFF778BF002240686E
:1045CC001146FFF76BBF002240681146FFF756BF3C
:1045DC00406800220221FFF759BF002340681A46A9
:1045EC00FFF744BF024B03225A60024A1A6070471D
:1045FC00B8E60320B0500B0010B5044608462170F5
:10460C00FFF7C8FE00236360204610BD054B022255
:10461C001A60054B054A9A600020C3E90000FFF7B9
:10462C00F9BE00BFCCE60320C0E603200000FFFF6C
:10463C00024800230360FFF725BE00BFD0E603202D
:10464C00F8B506460D468F180024BD420CD03368D1
:10465C0015F8011B9B6830469847031E01DB1C4470
:10466C00F3E7002C08BF1C462046F8BD13B50446E2
:10467C00084659B1019100F099FC23680199DB6857
:10468C000246204602B0BDE81040184702B010BDEB
:10469C0003689B68184730B58BB00023012A8DF84E
:1046AC00243098BF0A2209AC0D46B1FBF2F101FB94
:1046BC00125303F0FF03092B94BF30333733DBB2B3
:1046CC00AA4204F8013DEFD92146FFF7CFFF0BB00A
:1046DC0030BD0000014B024A1A607047D4E603203B
:1046EC00E4500B00024B1A68024B1A60704700BF73
:1046FC0040E60320D8E603200021FFF793BE00001C
:10470C00014B00229A607047DCE60320014B1860D5
:10471C00704700BF44E6032008B50B4B43B100F0D3
:10472C0063F903681B699847002801DDAFF300802B
:10473C00064B43B100F08EFB03681B6998470028B9
:10474C0001DDAFF3008008BD000000000000000098
:10475C0008B5FFF7E1FFFFF78DFD014B186008BDB1
:10476C0040E703200548064A064908B5121A00F02E
:10477C00D9FB054B054A1A6008BD00BF00F40320A5
:10478C0004F4032004530B0000F403201E1C279A8E
:10479C0007B5002300931A466FF07701FFF75CFE14
:1047AC0003B05DF804FB000007B543880A2B08D062
:1047BC00502B0BD1094B1B684BB103B05DF804EBCC
:1047CC001847FFF7E5FF03B05DF804FB00230093E7
:1047DC001A466FF07701FFF73FFEF4E7F0E603208F
:1047EC0010B512480021FFF7C1FE114B1A68114B8E
:1047FC009A42114B0CBF012200221A7001D0FFF714
:10480C00B1FFFFF72FFD044600F0A2FB0B4B13B1D9
:10481C002046AFF3008000210848FFF787FEBDE873
:10482C00104007480021FFF70DBE00BF19470B00D1
:10483C0000F403201E1C279AECE603200000000065
:10484C00B5470B00704710B518210446FFF71DFC47
:10485C00204610BDF0B5037D062B8DB00E4600F141
:10486C0004074FF0000412D000F1080515F8011DE3
:10487C000A223046FFF70FFFAF42044419D0002C38
:10488C00F4D02E213046FFF703FF0444EEE72F232C
:10489C006A4639460A208DF80040FFF7FBFC684653
:1048AC0000F084FB33680246DB6869463046984763
:1048BC00044620460DB0F0BD10B5054B0446112240
:1048CC0040F8043B002100F03BFB204610BD00BF2C
:1048DC000C510B000346074A10B543F8042B01F1A9
:1048EC00100251F8044B43F8044B9142F9D10A7869
:1048FC001A7010BD0C510B0010B59DF8084044EA1D
:10490C00032343EA024242EA016104234160037536
:10491C0010BD000007B5064B0360CB7800938B7875
:10492C004A780978FFF7E8FF03B05DF804FB00BF95
:10493C000C510B00417470477047704708B500214B
:10494C00007CFFF74FFD40EAE07008BD08B501217F
:10495C00007CFFF747FD40EAE07008BD08B5007C1D
:10496C00FFF738FD20EAE07008BD08B5007CFFF7C2
:10497C0029FD20EAE07008BD13B50446007C0191C6
:10498C00FFF728FD0028019901DC607C20B1207C18
:10499C00FFF730FD20EAE07002B010BD007CFFF79D
:1049AC0031BD10B514210446FFF76FFB204610BD36
:1049BC0010B54FF47A73044608460021C4E901137C
:1049CC00044B23600123207463741146FFF7F2FC3F
:1049DC00204610BD20510B0010B5142204460021B6
:1049EC0000F0AEFA204610BD10B50F4C88B003A8ED
:1049FC00FFF7F2FF2178BFF35B8F11F001010FD1AC
:104A0C0020460191FFF743FB019948B103AA0748DF
:104A1C00FFF7CEFF2046FFF73FFB054800F07CFA7E
:104A2C00024808B010BD00BFF4E60320F8E60320EE
:104A3C0045490B0070474174704708B5007CFFF77F
:104A4C0061FC20EAE07008BD08B5007CFFF732FC81
:104A5C0020EAE07008BD08B5007CFFF73BFC40EA9B
:104A6C00E07008BD08B5007CFFF72CFC40EAE07054
:104A7C0008BD007CFFF736BC37B5457C04462DB12C
:104A8C00207C03B0BDE83040FFF70CBC007C0191EA
:104A9C00FFF738FC00280199F2DC284603B030BD42
:104AAC0010B514210446FFF7F0FA204610BD0000A3
:104ABC0010B54FF47A730446084611460022C4E937
:104ACC000123044B2360012320746374FFF722FC41
:104ADC00204610BD50510B007047F8B506461546E0
:104AEC000C468F18BC4206D0336814F8011B9B6827
:104AFC0030469847F6E72846F8BD007C0022FFF7C1
:104B0C0011BC007C0021FFF715BC007C0021FFF7D5
:104B1C0019BC007C0021FFF71DBC007C0021FFF7B5
:104B2C0021BC10B514210446FFF7AFFA204610BD86
:104B3C0010B54FF47A73044608460021C4E90113FA
:104B4C00034B236020741146FFF71CFC204610BD5C
:104B5C0080510B00002240681146FFF79FBC0022D9
:104B6C0040681146FFF7BABC002240681146FFF7B7
:104B7C00C5BC40680022FFF7B9BC4068002281F038
:104B8C000101FFF7A3BC002340681A461946FFF742
:104B9C0095BC002340681A461946FFF787BC0022D3
:104BAC0040681146FFF76ABC406800220221FFF7FB
:104BBC006DBC002340681A46FFF758BC024B042218
:104BCC005A60024A1A6070470CE70320A8510B0088
:104BDC00002340681A46FFF749BC406800220221B6
:104BEC00FFF754BC002240681146FFF747BC002277
:104BFC0040681146FFF752BC002340681A4619461C
:104C0C00FFF754BC002340681A461946FFF756BC00
:104C1C0040680021FFF77ABC40680021FFF77EBC9A
:104C2C004068002281F00101FFF750BC406800226F
:104C3C00FFF75CBC002240681146FFF75FBC002206
:104C4C0040681146FFF74ABC2DE9F04395B0144675
:104C5C000D460746FFF730FE00211C220DA80091DF
:104C6C0000F06EF940230C9320466B460CAA0021F1
:104C7C00FFF7C8FA044600284BD1024601216868A8
:104C8C00FFF70CFC0221804622466868FFF706FC01
:104C9C00009E81462146002E3BD0002939D17368F5
:104CAC00022B03D00A2B11D0F669F4E7B8F1000FF0
:104CBC00FAD0716906A8043107ADFFF72BFE0FCDB2
:104CCC003C1D0FC42B6823704146EDE7B9F1000F72
:104CDC00EAD07469102201A800F032F906238DF88D
:104CEC00143001AD04F108031834186859682A46C9
:104CFC0003C20833A3421546F7D101A906A807AD94
:104D0C00FFF7E8FD0FCD3C1D0FC42B6823704946FF
:104D1C00CAE70098FFF76EFA384615B0BDE8F08385
:104D2C00024B034A1A6000225A60704714E70320B2
:104D3C00E4510B00232813B502D9002002B010BD9A
:104D4C00A0F10B03022B1AD8174C2178BFF35B8F01
:104D5C0011F001010BD120460191FFF798F901994F
:104D6C0028B11248FFF748FC2046FFF795F90F4B86
:104D7C001878FFF717FB0028DFD10120DEE70128A8
:104D8C0009D800F0A3F80021007CFFF7F3FA80F0BB
:104D9C000100C0B2D2E709380128EED800F05AF869
:104DAC00007CFFF7A7FAF2E71CE7032020E70320BB
:104DBC00232838B504460D460AD8FF2908D0FFF73A
:104DCC00B9FF28B129462046BDE83840FFF72ABA7A
:104DDC0038BD38B504460D46FFF7ACFFF0B10421E1
:104DEC002046FFF717FA042805D1A9B22046BDE8E2
:104DFC003840FFF727BA02212046FFF70BFA0228AA
:104E0C000CD12046FFF716FA012801D0042805D151
:104E1C0029462046BDE83840FFF71CBA38BD70471C
:104E2C0038B5044614252A46002100F089F825805F
:104E3C004025074925812846258200F06BF8044956
:104E4C006060284600F066F8E060204638BD00BF80
:104E5C0018520B0030B50E4D2978BFF35B8F11F053
:104E6C00010487B011D12846FFF711F968B101A8E8
:104E7C00FFF7D6FF01AA21460648FFF719FE284680
:104E8C00FFF70AF9044800F047F8024807B030BDB4
:104E9C0028E703202CE703202B4E0B007047000063
:104EAC0038B5202514230446036085600561064946
:104EBC00284600F02FF804496060284600F02AF8D4
:104ECC00E060204638BD00BF18520B0030B50E4DC7
:104EDC002978BFF35B8F11F0010487B011D12846FC
:104EEC00FFF7D5F868B101A8FFF7DAFF01AA214650
:104EFC000648FFF71DFE2846FFF7CEF8044800F0E1
:104F0C000BF8024807B030BD44E7032048E7032004
:104F1C00A94E0B00FFF7B7B8002301461A461846F6
:104F2C0000F04CB80A44914200F1FF3300D17047B5
:104F3C0010B511F8014B03F8014F9142F9D110BD96
:104F4C0002440346934200D1704703F8011BF9E772
:104F5C0038B5104B1D68AB6B0446B3B91820FFF77E
:104F6C00EDFA0246A86320B90B4B0C484221FFF71F
:104F7C00F5FA0B490B4BC0E900130B4B83600B2369
:104F8C00838100210120C2E90401AB6B00221C616A
:104F9C005A6138BD44E6032019520B0030520B0005
:104FAC000E33CDAB34126DE6ECDE0500034613F880
:104FBC00012B002AFBD1181A013870472DE9F84350
:104FCC00DFF8B8800646D8F800001F460D4691461B
:104FDC0000F056F8254B1C6834B9254C1C60254B49
:104FEC0013B11B68C4F8883063681F2B07DDD8F831
:104FFC00000000F047F84FF0FF30BDE8F8834EB3E7
:10500C00D4F8880088B91C4B23B9D8F8000000F0FC
:10501C0038F8F0E74FF48470FFF790FA0028F4D0DA
:10502C000023C0E94033C4F88800636840F823903B
:10503C0001229A4000EB8301D0F800311343C0F8F1
:10504C000031022EC1F8807002BFD0F80431134336
:10505C00C0F804316368D8F800005A1C023362604F
:10506C0044F8235000F00EF80020C6E7E8E70320D0
:10507C005CE703200000000049450B00A8E6032074
:10508C0070477047704700001D400B0059400B00E3
:10509C0081400B0085400B00000000000000000068
:1050AC0000000000E7450B00DD450B00D3450B006D
:1050BC00C9450B00BD450B00B1450B001D4C0B0049
:1050CC00254C0B00A5450B009D450B0093450B0093
:1050DC0089450B00554C0B006170700025592D252E
:1050EC006D2D25645425483A254D3A2553257A00D3
:1050FC0061736374696D65000000000000000000BE
:10510C0061480B0051480B0053480B000000000095
:10511C000000000047490B00AF490B0085490B000C
:10512C004D460B0077490B0049490B0059490B00C0
:10513C00A9490B0069490B0041490B000000000014
:10514C0000000000414A0B00AD4A0B00854A0B00E1
:10515C004D460B00554A0B00714A0B00634A0B007D
:10516C007F4A0B00434A0B00474A0B00000000002B
:10517C0000000000E54A0B002F4B0B00074B0B0007
:10518C00E74A0B000F4B0B00174B0B001F4B0B0090
:10519C00274B0B000000000000000000BF4B0B0071
:1051AC00B54B0B00AB4B0B00614B0B009F4B0B003B
:1051BC00934B0B001D4C0B00254C0B00874B0B002D
:1051CC007F4B0B00754B0B006B4B0B00554C0B00C6
:1051DC000000000000000000DD4B0B00E74B0B0053
:1051EC00F14B0B00FB4B0B00054C0B00114C0B0057
:1051FC001D4C0B00254C0B002D4C0B00394C0B009F
:10520C00414C0B004B4C0B00554C0B0000524545D0
:10521C004E54206D616C6C6F6320737563636565B0
:10522C00646564002F6D6E742F776F726B73706191
:10523C0063652F776F726B73706163652F474343A0
:10524C002D31302D706970656C696E652F6A656ED5
:10525C006B696E732D4743432D31302D706970652A
:10526C006C696E652D34385F323032303131323406
:10527C005F313630363138303634312F7372632F1C
:10528C006E65776C69622F6E65776C69622F6C69DD
:10529C0062632F7374646C69622F72616E642E6327
:1052AC0000000000D9410B00F1450B0019460B0022
:1052BC003D460B00E1460B00F1460B000D470B0081
:1052CC00C94B0B002D4D0B0000000000000000002E
:0452DC0000000000CE
:1052E000040000001400000003000000474E5500B9
:1052F000CBD6E8909EAA125CF5C617C07143D3A81E
:0453000057E027AE9D
:0453040000000000A5
:10530800070000000600000005000000FC500B002C
:1053180048E6032000000000000000000000000034
:105328000000000000000000000000000000000075
:105338000000000000000000000000000000000065
:105348000000000000000000000000000000000055
:105358000000000000000000000000000000000045
:105368000000000000000000000000000000000035
:0853780000000000ECE7032037
:10538000FFFFFFFF00000102030405060708090AEA
:105390000B0C0D0E0F101112131415161718191AE5
:0853A0001B1C1D1E1F2028002C
:0453A80078563412ED
:04000003B000401CED
:00000001FF
